:030980000108006B
:10092400E4FDFCC3ED9FEC9E5015E4FBFA0BBB0009
:0F093400010AEB64724A70F50DBD00010C80E4FE
:010943002291
:10080000E4F50975B0F0E5B054F0FFBFF005E4F58C
:1008100008FF22E4FF75B0F0EF14600F14601114AC
:1008200060132403701275B0FE800D75B0FD800852
:1008300075B0FB800375B0F7E5B054F0FD64F0606F
:1008400048ED2490602924C0601B24E0600D24F052
:100850007027EF25E025E004FE8020EF25E025E06D
:100860002402FE8016EF25E025E02403FE800CEF35
:1008700025E025E02404FE8002E4FEEE600BF5098D
:10088000E50870028E08AF08220FEF64047086E559
:07089000086002FF227F0057
:01089700223E
:10096400120800A907E960117F0A7E001209241207
:0B0974000800EFB50103AF01227F0077
:01097F002255
:1009440075B0FF7590FF120964EF600FF4F590C263
:10095400A3120964EF70FAD2A380EB7590FF80E6CE
:030000000208985B
:0C089800787FE4F6D8FD7581090208DFC6
:1008A400020944E493A3F8E493A34003F68001F21D
:1008B40008DFF48029E493A3F85407240CC8C33355
:1008C400C4540F4420C8834004F456800146F6DF24
:1008D400E4800B0102040810204080900980E47E2B
:1008E400019360BCA3FF543F30E509541FFEE49319
:1008F400A360010ECF54C025E060A840B8E493A3E0
:10090400FAE493A3F8E493A3C8C582C8CAC583CA0A
:10091400F0A3C8C582C8CAC583CADFE9DEE780BEC2
:010983000073
:00000001FF
