:100A5C003F065B4F666D7D077F6F777C395E7971E2
:040A6C000000000086
:100A3C00E4FDFCC3ED9FEC9E5015E4FBFA0BBB00F0
:0F0A4C00010AEB64724A70F50DBD00010C80E4E5
:010A5B002278
:100A7000EFD3940F4002E4FFEF900A5C93F58022DD
:0809F9008B0E8A0F89108D118D
:100A0100E4F512E512C395115030AF12A807740135
:100A1100088002C333D8FCF4F5A0AB0EAA0FA910CD
:100A21008512827583001208F6900A5C93F5807F27
:0A0A3100057E00120A3C051280C980
:010A3B002298
:10097800E4F50878097C00FD7BFF7A0A796CFE7F34
:10098800041208D07580FF75A0FFAF087E007C03B5
:100998007DE81209237C007D0A1209238D09E508E8
:1009A80075F0648475F00A8485F00AE50875F00A24
:1009B8008475F00A8485F00BE50875F00A8485F0E3
:1009C8000CE4F50D7B007A0079097D041209F97FA2
:1009D800017E00120A3C050DE50DC3946440E5054F
:1009E80008D3E508940F748094A7409EE4F5088026
:0109F8009965
:03000000020A8071
:0C0A8000787FE4F6D8FD75811202097839
:10080000E709F608DFFA8046E709F208DFFA803EDA
:1008100088828C83E709F0A3DFFA8032E309F608C7
:10082000DFFA8078E309F208DFFA807088828C832F
:10083000E309F0A3DFFA806489828A83E0A3F608E3
:10084000DFFA805889828A83E0A3F208DFFA804CBD
:1008500080D280FA80C680D4806980F28033801094
:1008600080A680EA809A80A880DA80E280CA8033FD
:1008700089828A83ECFAE493A3C8C582C8CCC58375
:10088000CCF0A3C8C582C8CCC583CCDFE9DEE78045
:100890000D89828A83E493A3F608DFF9ECFAA9F0C4
:1008A000EDFB2289828A83ECFAE0A3C8C582C8CC1A
:1008B000C583CCF0A3C8C582C8CCC583CCDFEADE33
:1008C000E880DB89828A83E493A3F208DFF980CC95
:1008D00088F0EF60010E4E60C388F0ED2402B4048E
:1008E0000050B9F582EB2402B4040050AF23234535
:0608F00082239008507302
:1008F600BB010CE58229F582E5833AF583E02250B7
:1009060006E92582F8E622BBFE06E92582F8E22200
:0D091600E58229F582E5833AF583E493221A
:10092300BC000BBE0029EF8DF084FFADF022E4CCB8
:10093300F875F008EF2FFFEE33FEEC33FCEE9DEC81
:10094300984005FCEE9DFE0FD5F0E9E4CEFD22EDC7
:10095300F8F5F0EE8420D21CFEADF075F008EF2F11
:10096300FFED33FD4007985006D5F0F222C398FD02
:050973000FD5F0EA229F
:00000001FF
