:10087300E4FDFCC3ED9FEC9E5015E4FBFA0BBB00BB
:0F088300010AEB64724A70F50DBD00010C80E4B0
:010892002243
:1008000075B0F0E5B054F0FFBFF0037F0022E4FFC5
:1008100075B0F0EF14600F146011146013240370AE
:100820001275B0FE800D75B0FD800875B0FB8003B9
:1008300075B0F7E5B054F02490602624C060192408
:10084000E0600C24F07023EF25E025E004FF22EFA8
:1008500025E025E02402FF22EF25E025E02403FF28
:1008600022EF25E025E02404FF220FEF640470A0AE
:020870007F0007
:010872002263
:10089300120800A907E960117F0A7E00120873128B
:0B08A3000800EFB50103AF01227F0049
:0108AE002227
:1008AF0075B0FF120893EF600BF4F590120893EFF9
:0908BF0060F180F87590FF80EAF9
:030000000208C82B
:0C08C800787FE4F6D8FD7581070208AFC8
:00000001FF
