:03097B0001080070
:10091F00E4FDFCC3ED9FEC9E5015E4FBFA0BBB000E
:0F092F00010AEB64724A70F50DBD00010C80E403
:01093E002296
:1008000075B0F0E5B054F0FFBFF005E4F508FF2245
:10081000E4FF75B0F0EF14600F146011146013243E
:1008200003701275B0FE800D75B0FD800875B0FBC9
:10083000800375B0F7E5B054F0FD64F06046ED2438
:1008400090602924C0601B24E0600D24F07027EF25
:1008500025E025E004FE8020EF25E025E02402FECF
:100860008016EF25E025E02403FE800CEF25E0252F
:10087000E02404FE8002E4FEEE6009E50870028ECA
:1008800008AF08220FEF64047088E5086002FF22B9
:020890007F00E7
:010892002243
:10095F00120800A907E960117F0A7E0012091F1211
:0B096F000800EFB50103AF01227F007C
:01097A00225A
:10093F0075B0FF7590FF12095FEF600FF4F590C26D
:10094F00A312095FEF70FAD2A380EB7590FF80E6D8
:0300000002089360
:0C089300787FE4F6D8FD7581080208DAD1
:10089F0002093FE493A3F8E493A34003F68001F227
:1008AF0008DFF48029E493A3F85407240CC8C3335A
:1008BF00C4540F4420C8834004F456800146F6DF29
:1008CF00E4800B010204081020408090097BE47E35
:1008DF00019360BCA3FF543F30E509541FFEE4931E
:1008EF00A360010ECF54C025E060A840B8E493A3E5
:1008FF00FAE493A3F8E493A3C8C582C8CAC583CA10
:10090F00F0A3C8C582C8CAC583CADFE9DEE780BEC7
:01097E000078
:00000001FF
