:0E0B370001060126014A015D018801B801EEA8
:100B0500E4FDFCC3ED9FEC9E5015E4FBFA0BBB0026
:0F0B1500010AEB64724A70F50DBD00010C80E41B
:010B240022AE
:100B2500E4FDFCC3ED9FEC9E50070DBD00010C805C
:010B3500F2CD
:010B3600229C
:040A2B008C178D187F
:100A2F00AB07AA06E4F9F87F407E427D0FFC120A5D
:100A3F0086AB07AA06EAC313FEEB13F5828E83AECD
:100A4F0017AF187C037DE81208F6AC02AD0312094C
:100A5F00088E198F1AE4FBFAC3EB951AEA95195011
:100A6F0015D2A3AF82AE83120B25C2A3120B250B97
:060A7F00BB00010A80E249
:010A8500224E
:0A0B5100120A2B7F327E00020B0512
:100ACA0078087C007D007BFF7A0B79377E007F0EE9
:100ADA001208D0E4F516E51625E02408F8E6FE0823
:100AEA00E6FF7DF47C01120B510516E516C3940747
:0B0AFA0040E47FE87E03120B0580D86B
:03000000020B45AB
:0C0B4500787FE4F6D8FD75811A020ACA18
:10080000E709F608DFFA8046E709F208DFFA803EDA
:1008100088828C83E709F0A3DFFA8032E309F608C7
:10082000DFFA8078E309F208DFFA807088828C832F
:10083000E309F0A3DFFA806489828A83E0A3F608E3
:10084000DFFA805889828A83E0A3F208DFFA804CBD
:1008500080D280FA80C680D4806980F28033801094
:1008600080A680EA809A80A880DA80E280CA8033FD
:1008700089828A83ECFAE493A3C8C582C8CCC58375
:10088000CCF0A3C8C582C8CCC583CCDFE9DEE78045
:100890000D89828A83E493A3F608DFF9ECFAA9F0C4
:1008A000EDFB2289828A83ECFAE0A3C8C582C8CC1A
:1008B000C583CCF0A3C8C582C8CCC583CCDFEADE33
:1008C000E880DB89828A83E493A3F208DFF980CC95
:1008D00088F0EF60010E4E60C388F0ED2402B4048E
:1008E0000050B9F582EB2402B4040050AF23234535
:0608F00082239008507302
:1008F600EF8DF0A4A8F0CF8CF0A428CE8DF0A42E16
:02090600FE22CF
:10090800BC000BBE0029EF8DF084FFADF022E4CCD3
:10091800F875F008EF2FFFEE33FEEC33FCEE9DEC9C
:10092800984005FCEE9DFE0FD5F0E9E4CEFD22EDE2
:10093800F8F5F0EE8420D21CFEADF075F008EF2F2C
:10094800FFED33FD4007985006D5F0F222C398FD1D
:050958000FD5F0EA22BA
:100A8600C2D5E830E70FB2D5E4C39BFBE49AFAE49B
:100A960099F9E498F8EC30E717B2D5120ABC1209B6
:100AA60099E4C39BFBE49AFAE499F9E498F8800385
:100AB60012099930D50DE4C39FFFE49EFEE49DFD27
:040AC600E49CFC228E
:10095D0075F008758200EF2FFFEE33FECD33CDCC51
:10096D0033CCC58233C5829BED9AEC99E5829840D4
:10097D000CF582EE9BFEED9AFDEC99FC0FD5F0D6B1
:10098D00E4CEFBE4CDFAE4CCF9A88222B800C1B9DB
:10099D000059BA002DEC8BF084CFCECDFCE5F0CB19
:1009AD00F97818EF2FFFEE33FEED33FDEC33FCEB52
:1009BD0033FB10D703994004EB99FB0FD8E5E4F90D
:1009CD00FA227818EF2FFFEE33FEED33FDEC33FCFA
:1009DD00C933C910D7059BE99A4007EC9BFCE99AEE
:1009ED00F90FD8E0E4C9FAE4CCFB2275F010EF2F33
:1009FD00FFEE33FEED33FDCC33CCC833C810D70733
:100A0D009BEC9AE899400AED9BFDEC9AFCE899F86D
:0E0A1D000FD5F0DAE4CDFBE4CCFAE4C8F92200
:00000001FF
