:1008C4003F065B4F666D7D077F6F777C395E79717C
:10089400E4FDFCC3ED9FEC9E5015E4FBFA0BBB009A
:0F08A400010AEB64724A70F50DBD00010C80E48F
:0108B3002222
:1008B400EFD3940F4002E4FFEF9008C493F5802235
:080800008B088A09890A8D0B9F
:10080800E4F50CE50CC3950B5030AF0CA807740148
:10081800088002C333D8FCF4F5A0AB08AA09A90ADA
:10082800850C827583001208439008C493F5807F75
:0A083800057E00120894050C80C92B
:010842002293
:10087000E4F9F5807590FF75A0FF75B0FFE975F09C
:100880000A84E5F09008C493F5807FE87E0312089F
:04089000940980E95E
:030000000208D41F
:0C08D400787FE4F6D8FD75810C020870F6
:10084300BB010CE58229F582E5833AF583E022506A
:1008530006E92582F8E622BBFE06E92582F8E222B4
:0D086300E58229F582E5833AF583E49322CE
:00000001FF
